{
  "_format": "hh-sol-artifact-1",
  "contractName": "BuyMeACoffee",
  "sourceName": "contracts/BuyMeACoffee.sol",
  "abi": [
    {
      "inputs": [],
      "stateMutability": "nonpayable",
      "type": "constructor"
    },
    {
      "anonymous": false,
      "inputs": [
        {
          "indexed": true,
          "internalType": "address",
          "name": "from",
          "type": "address"
        },
        {
          "indexed": false,
          "internalType": "uint256",
          "name": "timestamp",
          "type": "uint256"
        },
        {
          "indexed": false,
          "internalType": "string",
          "name": "name",
          "type": "string"
        },
        {
          "indexed": false,
          "internalType": "string",
          "name": "message",
          "type": "string"
        }
      ],
      "name": "NewMemo",
      "type": "event"
    },
    {
      "inputs": [
        {
          "internalType": "string",
          "name": "_name",
          "type": "string"
        },
        {
          "internalType": "string",
          "name": "_message",
          "type": "string"
        }
      ],
      "name": "buyCoffee",
      "outputs": [],
      "stateMutability": "payable",
      "type": "function"
    },
    {
      "inputs": [],
      "name": "getMemos",
      "outputs": [
        {
          "components": [
            {
              "internalType": "address",
              "name": "from",
              "type": "address"
            },
            {
              "internalType": "uint256",
              "name": "timestamp",
              "type": "uint256"
            },
            {
              "internalType": "string",
              "name": "name",
              "type": "string"
            },
            {
              "internalType": "string",
              "name": "message",
              "type": "string"
            }
          ],
          "internalType": "struct BuyMeACoffee.Memo[]",
          "name": "",
          "type": "tuple[]"
        }
      ],
      "stateMutability": "view",
      "type": "function"
    },
    {
      "inputs": [],
      "name": "getWithdrawalAddress",
      "outputs": [
        {
          "internalType": "address",
          "name": "",
          "type": "address"
        }
      ],
      "stateMutability": "view",
      "type": "function"
    },
    {
      "inputs": [],
      "name": "isOwner",
      "outputs": [
        {
          "internalType": "bool",
          "name": "",
          "type": "bool"
        }
      ],
      "stateMutability": "view",
      "type": "function"
    },
    {
      "inputs": [
        {
          "internalType": "uint256",
          "name": "",
          "type": "uint256"
        }
      ],
      "name": "memos",
      "outputs": [
        {
          "internalType": "address",
          "name": "from",
          "type": "address"
        },
        {
          "internalType": "uint256",
          "name": "timestamp",
          "type": "uint256"
        },
        {
          "internalType": "string",
          "name": "name",
          "type": "string"
        },
        {
          "internalType": "string",
          "name": "message",
          "type": "string"
        }
      ],
      "stateMutability": "view",
      "type": "function"
    },
    {
      "inputs": [],
      "name": "minEther",
      "outputs": [
        {
          "internalType": "uint256",
          "name": "",
          "type": "uint256"
        }
      ],
      "stateMutability": "view",
      "type": "function"
    },
    {
      "inputs": [
        {
          "internalType": "address payable",
          "name": "_withdrawalAddress",
          "type": "address"
        }
      ],
      "name": "setWithdrawalAddress",
      "outputs": [],
      "stateMutability": "nonpayable",
      "type": "function"
    },
    {
      "inputs": [],
      "name": "withdrawTips",
      "outputs": [],
      "stateMutability": "nonpayable",
      "type": "function"
    }
  ],
  "bytecode": "0x608060405266038d7ea4c6800060035534801561001b57600080fd5b5033600160006101000a81548173ffffffffffffffffffffffffffffffffffffffff021916908373ffffffffffffffffffffffffffffffffffffffff160217905550600160009054906101000a900473ffffffffffffffffffffffffffffffffffffffff16600260006101000a81548173ffffffffffffffffffffffffffffffffffffffff021916908373ffffffffffffffffffffffffffffffffffffffff160217905550611592806100cf6000396000f3fe60806040526004361061007b5760003560e01c8063865c51721161004e578063865c5172146101075780638f32d59b14610132578063e8dfdf041461015d578063ec8f3fa51461019d5761007b565b8063051af15d14610080578063204206e1146100ab57806321b8092e146100c75780633aaa74b2146100f0575b600080fd5b34801561008c57600080fd5b506100956101c8565b6040516100a29190610a00565b60405180910390f35b6100c560048036038101906100c09190610b75565b6101ce565b005b3480156100d357600080fd5b506100ee60048036038101906100e99190610c4b565b610444565b005b3480156100fc57600080fd5b506101056104cf565b005b34801561011357600080fd5b5061011c610612565b6040516101299190610e53565b60405180910390f35b34801561013e57600080fd5b506101476107f5565b6040516101549190610e90565b60405180910390f35b34801561016957600080fd5b50610184600480360381019061017f9190610ed7565b61084d565b6040516101949493929190610f5d565b60405180910390f35b3480156101a957600080fd5b506101b26109bd565b6040516101bf9190610fb0565b60405180910390f35b60035481565b600354341015610213576040517f08c379a000000000000000000000000000000000000000000000000000000000815260040161020a9061103d565b60405180910390fd5b600073ffffffffffffffffffffffffffffffffffffffff16600260009054906101000a900473ffffffffffffffffffffffffffffffffffffffff1673ffffffffffffffffffffffffffffffffffffffff16036102a4576040517f08c379a000000000000000000000000000000000000000000000000000000000815260040161029b906110f5565b60405180910390fd5b600060405180608001604052803373ffffffffffffffffffffffffffffffffffffffff16815260200142815260200184815260200183815250908060018154018082558091505060019003906000526020600020906004020160009091909190915060008201518160000160006101000a81548173ffffffffffffffffffffffffffffffffffffffff021916908373ffffffffffffffffffffffffffffffffffffffff16021790555060208201518160010155604082015181600201908161036c9190611321565b5060608201518160030190816103829190611321565b5050503373ffffffffffffffffffffffffffffffffffffffff167fc56140e05f516509ae28110e0f72e17558a7561630dad2647c3ae87d986e365c4284846040516103cf939291906113f3565b60405180910390a2600260009054906101000a900473ffffffffffffffffffffffffffffffffffffffff1673ffffffffffffffffffffffffffffffffffffffff166108fc349081150290604051600060405180830381858888f1935050505015801561043f573d6000803e3d6000fd5b505050565b61044c6107f5565b61048b576040517f08c379a0000000000000000000000000000000000000000000000000000000008152600401610482906114aa565b60405180910390fd5b80600260006101000a81548173ffffffffffffffffffffffffffffffffffffffff021916908373ffffffffffffffffffffffffffffffffffffffff16021790555050565b6104d76107f5565b610516576040517f08c379a000000000000000000000000000000000000000000000000000000000815260040161050d9061153c565b60405180910390fd5b600073ffffffffffffffffffffffffffffffffffffffff16600260009054906101000a900473ffffffffffffffffffffffffffffffffffffffff1673ffffffffffffffffffffffffffffffffffffffff16036105a7576040517f08c379a000000000000000000000000000000000000000000000000000000000815260040161059e906110f5565b60405180910390fd5b600260009054906101000a900473ffffffffffffffffffffffffffffffffffffffff1673ffffffffffffffffffffffffffffffffffffffff166108fc479081150290604051600060405180830381858888f1935050505015801561060f573d6000803e3d6000fd5b50565b60606000805480602002602001604051908101604052809291908181526020016000905b828210156107ec57838290600052602060002090600402016040518060800160405290816000820160009054906101000a900473ffffffffffffffffffffffffffffffffffffffff1673ffffffffffffffffffffffffffffffffffffffff1673ffffffffffffffffffffffffffffffffffffffff168152602001600182015481526020016002820180546106c990611144565b80601f01602080910402602001604051908101604052809291908181526020018280546106f590611144565b80156107425780601f1061071757610100808354040283529160200191610742565b820191906000526020600020905b81548152906001019060200180831161072557829003601f168201915b5050505050815260200160038201805461075b90611144565b80601f016020809104026020016040519081016040528092919081815260200182805461078790611144565b80156107d45780601f106107a9576101008083540402835291602001916107d4565b820191906000526020600020905b8154815290600101906020018083116107b757829003601f168201915b50505050508152505081526020019060010190610636565b50505050905090565b6000600160009054906101000a900473ffffffffffffffffffffffffffffffffffffffff1673ffffffffffffffffffffffffffffffffffffffff163373ffffffffffffffffffffffffffffffffffffffff1614905090565b6000818154811061085d57600080fd5b90600052602060002090600402016000915090508060000160009054906101000a900473ffffffffffffffffffffffffffffffffffffffff16908060010154908060020180546108ac90611144565b80601f01602080910402602001604051908101604052809291908181526020018280546108d890611144565b80156109255780601f106108fa57610100808354040283529160200191610925565b820191906000526020600020905b81548152906001019060200180831161090857829003601f168201915b50505050509080600301805461093a90611144565b80601f016020809104026020016040519081016040528092919081815260200182805461096690611144565b80156109b35780601f10610988576101008083540402835291602001916109b3565b820191906000526020600020905b81548152906001019060200180831161099657829003601f168201915b5050505050905084565b6000600260009054906101000a900473ffffffffffffffffffffffffffffffffffffffff16905090565b6000819050919050565b6109fa816109e7565b82525050565b6000602082019050610a1560008301846109f1565b92915050565b6000604051905090565b600080fd5b600080fd5b600080fd5b600080fd5b6000601f19601f8301169050919050565b7f4e487b7100000000000000000000000000000000000000000000000000000000600052604160045260246000fd5b610a8282610a39565b810181811067ffffffffffffffff82111715610aa157610aa0610a4a565b5b80604052505050565b6000610ab4610a1b565b9050610ac08282610a79565b919050565b600067ffffffffffffffff821115610ae057610adf610a4a565b5b610ae982610a39565b9050602081019050919050565b82818337600083830152505050565b6000610b18610b1384610ac5565b610aaa565b905082815260208101848484011115610b3457610b33610a34565b5b610b3f848285610af6565b509392505050565b600082601f830112610b5c57610b5b610a2f565b5b8135610b6c848260208601610b05565b91505092915050565b60008060408385031215610b8c57610b8b610a25565b5b600083013567ffffffffffffffff811115610baa57610ba9610a2a565b5b610bb685828601610b47565b925050602083013567ffffffffffffffff811115610bd757610bd6610a2a565b5b610be385828601610b47565b9150509250929050565b600073ffffffffffffffffffffffffffffffffffffffff82169050919050565b6000610c1882610bed565b9050919050565b610c2881610c0d565b8114610c3357600080fd5b50565b600081359050610c4581610c1f565b92915050565b600060208284031215610c6157610c60610a25565b5b6000610c6f84828501610c36565b91505092915050565b600081519050919050565b600082825260208201905092915050565b6000819050602082019050919050565b6000610caf82610bed565b9050919050565b610cbf81610ca4565b82525050565b610cce816109e7565b82525050565b600081519050919050565b600082825260208201905092915050565b60005b83811015610d0e578082015181840152602081019050610cf3565b60008484015250505050565b6000610d2582610cd4565b610d2f8185610cdf565b9350610d3f818560208601610cf0565b610d4881610a39565b840191505092915050565b6000608083016000830151610d6b6000860182610cb6565b506020830151610d7e6020860182610cc5565b5060408301518482036040860152610d968282610d1a565b91505060608301518482036060860152610db08282610d1a565b9150508091505092915050565b6000610dc98383610d53565b905092915050565b6000602082019050919050565b6000610de982610c78565b610df38185610c83565b935083602082028501610e0585610c94565b8060005b85811015610e415784840389528151610e228582610dbd565b9450610e2d83610dd1565b925060208a01995050600181019050610e09565b50829750879550505050505092915050565b60006020820190508181036000830152610e6d8184610dde565b905092915050565b60008115159050919050565b610e8a81610e75565b82525050565b6000602082019050610ea56000830184610e81565b92915050565b610eb4816109e7565b8114610ebf57600080fd5b50565b600081359050610ed181610eab565b92915050565b600060208284031215610eed57610eec610a25565b5b6000610efb84828501610ec2565b91505092915050565b610f0d81610ca4565b82525050565b600082825260208201905092915050565b6000610f2f82610cd4565b610f398185610f13565b9350610f49818560208601610cf0565b610f5281610a39565b840191505092915050565b6000608082019050610f726000830187610f04565b610f7f60208301866109f1565b8181036040830152610f918185610f24565b90508181036060830152610fa58184610f24565b905095945050505050565b6000602082019050610fc56000830184610f04565b92915050565b7f596f75206e65656420746f20706179206174206c6561737420302e303031204560008201527f5448000000000000000000000000000000000000000000000000000000000000602082015250565b6000611027602283610f13565b915061103282610fcb565b604082019050919050565b600060208201905081810360008301526110568161101a565b9050919050565b7f5769746864726177616c20616464726573732073686f756c642062652073657460008201527f20616e642069742073686f756c6420626520612070617961626c65206164647260208201527f6573732e00000000000000000000000000000000000000000000000000000000604082015250565b60006110df604483610f13565b91506110ea8261105d565b606082019050919050565b6000602082019050818103600083015261110e816110d2565b9050919050565b7f4e487b7100000000000000000000000000000000000000000000000000000000600052602260045260246000fd5b6000600282049050600182168061115c57607f821691505b60208210810361116f5761116e611115565b5b50919050565b60008190508160005260206000209050919050565b60006020601f8301049050919050565b600082821b905092915050565b6000600883026111d77fffffffffffffffffffffffffffffffffffffffffffffffffffffffffffffffff8261119a565b6111e1868361119a565b95508019841693508086168417925050509392505050565b6000819050919050565b600061121e611219611214846109e7565b6111f9565b6109e7565b9050919050565b6000819050919050565b61123883611203565b61124c61124482611225565b8484546111a7565b825550505050565b600090565b611261611254565b61126c81848461122f565b505050565b5b8181101561129057611285600082611259565b600181019050611272565b5050565b601f8211156112d5576112a681611175565b6112af8461118a565b810160208510156112be578190505b6112d26112ca8561118a565b830182611271565b50505b505050565b600082821c905092915050565b60006112f8600019846008026112da565b1980831691505092915050565b600061131183836112e7565b9150826002028217905092915050565b61132a82610cd4565b67ffffffffffffffff81111561134357611342610a4a565b5b61134d8254611144565b611358828285611294565b600060209050601f83116001811461138b5760008415611379578287015190505b6113838582611305565b8655506113eb565b601f19841661139986611175565b60005b828110156113c15784890151825560018201915060208501945060208101905061139c565b868310156113de57848901516113da601f8916826112e7565b8355505b6001600288020188555050505b505050505050565b600060608201905061140860008301866109f1565b818103602083015261141a8185610f24565b9050818103604083015261142e8184610f24565b9050949350505050565b7f4f6e6c792074686520636f6e7472616374206f776e65722063616e207365742060008201527f746865207769746864726177616c20616464726573732e000000000000000000602082015250565b6000611494603783610f13565b915061149f82611438565b604082019050919050565b600060208201905081810360008301526114c381611487565b9050919050565b7f4f6e6c792074686520636f6e7472616374206f776e65722063616e207769746860008201527f6472617720746970732e00000000000000000000000000000000000000000000602082015250565b6000611526602a83610f13565b9150611531826114ca565b604082019050919050565b6000602082019050818103600083015261155581611519565b905091905056fea2646970667358221220cde05109e382194130e1d65532aaff14f8dc0fc7c55a13aca51aba7c73e0ef6164736f6c63430008110033",
  "linkReferences": {},
  "deployedLinkReferences": {}
}